:020000040000FA
:06000000FEEF04F0120007
:0A00060002006C0A00000001000077
:10001000CE000000680A0000D801000004000000C3
:10002000D9CFE6FFE1CFD9FF050EE126DF6A010E49
:10003000DB6A020EDB6A030EDB6A040EDB6ADF6A30
:100040001E0EDF5C0AE2DF50EA6A000FE96E010E65
:10005000EA22200EEF6EDF2AF3D74CEC03F0F19E7C
:100060009380C0881F0EC16E928A030EE66E020E48
:10007000E66EADD9E552E5528150010B04E08050A7
:10008000200B01E0F9D7B9D9DF6A1E0EDF5C2BE245
:100090008CEC03F0F3CF10F0F4CF11F0020E0D6EE4
:1000A0000E6A10C008F011C009F077EC04F004C02B
:1000B00010F005C011F0030E10C0DBFFDB0409E1F6
:1000C000DF50EA6AB00FE96E010EEA22310EEF6EE0
:1000D00008D0DF50EA6AB00FE96E010EEA22300E56
:1000E000EF6EDF2AD2D7DE52030EDD6E010EDB503B
:1000F000030801E219D1DF6A010EDB50DF5C20E268
:10010000DF50EA6AB00FE96E010EEA22EFCF00F18C
:10011000010EE66EE66A5BD9E552E552500EE66ED8
:10012000C1EC04F0E552010EE66EE66E50D9E552E0
:10013000E552140EE66EC1EC04F0E552DF2ADCD77E
:10014000020EDB6A010EDB50F36E020EDBCFF4FF12
:10015000F350F45C01E3E3D08150010B0AE1020E9D
:10016000DB50EA6AB00FE96E010EEA22EF50300868
:100170000DE08050200B0DE1020EDB50EA6AB00F5B
:10018000E96E010EEA22EF50310803E136D9C4D0FE
:10019000C2D08150010B0AE1020EDB50EA6AB00FB7
:1001A000E96E010EEA22EF50310815E08050200B75
:1001B0000AE1020EDB50EA6AB00FE96E010EEA2294
:1001C000EF50300808E08150010B01E09DD08050D5
:1001D000200B01E099D011D9040EDB2A050EE66E42
:1001E000040EE66EF4D8E552E552020EF36E040EEC
:1001F000DBCFF4FFF350F45C01E30DD0320EE66E7A
:10020000C1EC04F0E55281B003D0F7D874D779D0AF
:1002100080BA77D0F2D80A0E106E10C00EF0010E20
:10022000DBCF09F01AEC05F009500EE10A0E106E52
:1002300010C00EF0010EDBCF09F01AEC05F00550EE
:10024000300F0101AF6F1AD00A0E106E10C00EF001
:10025000010EDBCF09F01AEC05F00950300F010157
:10026000AE6F0A0E106E10C00EF0010EDBCF09F05B
:100270001AEC05F00550300F0101AF6F0A0EE66E63
:10028000E66EA5D8E552E552C80EE66EC1EC04F064
:10029000E552090EE66E080EE66E99D8E552E55273
:1002A000C80EE66EC1EC04F0E552030EDB6A1E0ECA
:1002B000F36E030EDBCFF4FFF350F45C16E2030E93
:1002C000DB50EA6AB00FE96E010EEA22EF50E66EEB
:1002D000030EDB50EA6A000FE96E010EEA22E552D6
:1002E000E750EF6E030EDB2AE2D7010EE66EE66AF8
:1002F0006ED8E552E552C80EE66EC1EC04F0E55248
:100300005BD081D709D007D08150010B04E0805029
:10031000200B01E021D720D7020EDB2A13D7010ED4
:10032000DB2A040EDB6AE2D6070EE66E060EE66EE8
:100330004ED8E552E552640EE66EC1EC04F0E5528B
:10034000030EDB6A1E0EF36E030EDBCFF4FFF350D9
:10035000F45C16E2030EDB50EA6AB00FE96E010EA0
:10036000EA22EF50E66E030EDB50EA6A000FE96EF8
:10037000010EEA22E552E750EF6E030EDB2AE2D7C8
:10038000956A8150010B16E08050200B13E0010E9E
:10039000E66EE66A1CD8E552E5528C68030EE66EFE
:1003A000C1EC04F0E5528C6A030EE66EC1EC04F079
:1003B000E552E7D722D88C6A33DE050EE15C02E213
:1003C000E16AE552E16EE552E7CFD9FF1200D9CFDD
:1003D000E6FFE1CFD9FFE5EC02F0FE0EDBCFE6FF52
:1003E0002AD8E552EAEC02F0FD0EDBCFE6FF23D877
:1003F000E552E552E7CFD9FF1200D9CFE6FFE1CFB2
:10040000D9FFE652DF6A640EE66E0CEC05F0E552A9
:100410008150010B05E08050200B02E0DF2A01D063
:10042000DF6A050EDF5C01E301D0EDD7E552E5524E
:10043000E7CFD9FF1200D9CFE6FFE1CFD9FF050EF4
:10044000E126DE6ADD6A020EDB6A030EDB6ADECFBE
:1004500010F0DDCF11F0100E105C000E11583CE2D0
:10046000FE0EDB50100DF350E66ED950020FE96E10
:10047000DACFEAFFE552E750EE6EED6A020EDBCF0F
:1004800012F0030EDBCF13F0DE501224106EDD509D
:100490001320116E020E10C0DBFF030E11C0DBFF34
:1004A000020EDBCFE9FF030EDBCFEAFF000EE926E9
:1004B000010EEA22040EEFCFDBFFDBCFE6FFAAEC52
:1004C00002F0E552320EE66E28EC05F0E552DF2A26
:1004D000010E01E3DB2ABBD7050EE15C02E2E16A13
:0C04E000E552E16EE552E7CFD9FF1200B3
:0404EC00D9CFE6FF7F
:1004F000E1CFD9FF8994400EC96E9EA6FED79E9685
:10050000120EC96E9EA6FED79E96FE0EDB50C96ED9
:100510009EA6FED79E968984E552E7CFD9FF1200AA
:10052000D9CFE6FFE1CFD9FF8994400EC96E9EA6D0
:10053000FED79E96130EC96E9EA6FED79E96FE0E01
:10054000DB50C96E9EA6FED79E968984E552E7CF02
:10055000D9FF1200D9CFE6FFE1CFD9FF800EE66EBA
:10056000C5DFE552FE0EDBCFE6FFDADFE552C00E57
:10057000E66EBCDFE552E66AB9DFE552E552E7CF49
:10058000D9FF1200D9CFE6FFE1CFD9FFE66AAEDF8F
:10059000E552E66A28EC05F0E552FE0EDBCFE6FFF9
:1005A000BFDFE552E66A28EC05F0E552400EE66E44
:1005B0009DDFE552E66A28EC05F0E552E66A96DF33
:1005C000E552E552E7CFD9FF1200800EE66EDADF82
:1005D000E5521200C00EE66ED5DFE5521200D9CF0B
:1005E000E6FFE1CFD9FFE66A81DFE552FE0EDBCF01
:1005F000E6FF96DFE552000000000000400EE66EC8
:1006000075DFE5520000000000000000000000005F
:10061000000000000000E66A69DFE552E552E7CF1E
:10062000D9FF1200D9CFE6FFE1CFD9FF8994400E60
:10063000C96E9EA6FED79E96C96A9EA6FED79E96B6
:10064000FE0EDB50C96E9EA6FED79E968984E552AB
:10065000E7CFD9FF1200D9CFE6FFE1CFD9FF8994C8
:10066000400EC96E9EA6FED79E96010EC96E9EA62E
:10067000FED79E96FE0EDB50C96E9EA6FED79E96B6
:100680008984E552E7CFD9FF12009496949A220EFE
:10069000C66EC78C9E96120092948984E66A28ECF6
:1006A00005F0E552E66A28EC05F0E552E66A28EC2A
:1006B00005F0E552979C8E9CE66A28EC05F0E55221
:1006C0008E8CE3DFE66AAEDFE552E66AC4DFE55210
:1006D000E66A0CDFE552E66A28EC05F0E5523C0ECE
:1006E000E66E7DDFE552E66A28EC05F0E5520C0E79
:1006F000E66E75DFE552E66A28EC05F0E552010E7C
:10070000E66E6DDFE552E66A28EC05F0E552060E6E
:08071000E66E65DFE552120000
:080718006D0E0B6E4E0E0C6E0F
:10072000C60E0D6E410E0E6ED8C106F0D9C107F08F
:10073000DAC108F0DBC109F03FEC04F002C0D8F1E7
:1007400003C0D9F104C0DAF105C0DBF1390E0101B3
:10075000D827300ED923000EDA23DB23D8C106F0C8
:10076000D9C107F0DAC108F0DBC109F00B6A0C6AE5
:10077000010E0D6E0E6A9DEC04F0086A096A0B6AA0
:10078000800E0C6E0D6A0E6A9DEC04F002C0DCF166
:1007900003C0DDF1DCC110F0DDC111F00001116A10
:1007A000010E10161050111005E1020EF36EF46ADE
:1007B00005D004D0010EF36EF46A00D01200D9CF38
:1007C000E6FFE1CFD9FFFD0EDBCFD8F1FE0EDBCF88
:1007D000D9F10101DA6BDB6BE552E7CFD9FF1200EB
:1007E000060EF66E000EF76E000EF86E010109009F
:1007F000F550D36F0900F550D46F03E1D36701D0F2
:100800003DD00900F550CE6F0900F550CF6F0900BB
:10081000F550D06F09000900F550E96E0900F55058
:10082000EA6E090009000900F550D16F0900F55082
:10083000D26F09000900F6CFD5F1F7CFD6F1F8CF86
:10084000D7F1CEC1F6FFCFC1F7FFD0C1F8FF01014C
:10085000D15302E1D25307E00900F550EE6ED10703
:10086000F8E2D207F9D7D5C1F6FFD6C1F7FFD7C155
:0E087000F8FF0101D307000ED45BBFD71200C2
:02087E00065022
:100880000B02F3CF02F0F4CF03F00C02F350032677
:10089000000EF420046E06500D02F3500426000EE4
:1008A000F420056E06500E02F350052607500B0289
:1008B000F3500326F4500422000E052207500C02C8
:1008C000F3500426F450052207500D02F35005267C
:1008D00008500B02F3500426F450052208500C0275
:0E08E000F350052609500B02F35005261200B6
:0208EE00006A9E
:1008F0000EAE80EF04F00D6C0E1EE86A0E22001E94
:1009000009AE88EF04F0086C091EE86A0922001E8F
:10091000D8EC04F009BE98EF04F000AE000C086CAF
:10092000091EE86A0922046C051EE86A0522000C0B
:0A09300000BE8FEF04F00188FF0CF9
:06093A00056A046A036A6D
:10094000026A200EE76ED89006360736083609365A
:1009500002360336043605360B50025C0C50035841
:100960000D5004580E50055809E30B50025E0C5010
:10097000035A0D50045A0E50055A062AE72EE4D7A2
:02098000120063
:0E098200FF0EE350156EEF0E01D0F30EE76E80
:10099000E72EC8EF04F00C0E146EE76AE72ECEEFD8
:1009A00004F0142ECDEF04F0152EC6EF04F0120063
:1009B000056A046A100EE76ED890083609360436C8
:1009C00005360D50045C0E50055805E30D50045ECD
:0C09D0000E50055A082AE72EF0D712003E
:0409DC00400EF36E68
:1009E00000EE00F00F0E01D81200EA6002D0EE6AAD
:0C09F000FCD7F350E9601200EE6AFCD75F
:0409FC001EEE00F0FB
:100A00002EEE00F0F86A019CF0EC03F033EC05F0F8
:080A100010EC00F0FBD712000E
:080A1800FF0EE350156E1B0EEA
:100A200000D001D0200EE76EE72EFED7152EFAD7A4
:040A300000D01200E0
:0C0A3400056A080EE76ED89009360536FA
:100A40000E50055C02E3056E092AE72EF7D7120067
:100A5000FF0EE350E84E1200000000D000D000D09E
:060A6000E82EFAD7120097
:020A660012007C
:040A68000100000089
:040A6C002020202006
:100A70002020202020202020202020202020202076
:100A80002020202020202020202020202020205333
:100A9000746172742047616D653F202020205052A0
:100AA00045535320414E594B4559202057524F4EE4
:100AB000472C74727920616761696E3F5242302D14
:100AC0003E79207C7C205241352D3E4E436F6E672F
:100AD000726174756C6174696F6E732120202020BF
:100AE00020594F552057494E212120202A2A2A2AB1
:100AF0002A434F52524543542A2A2A2A2A2A2A2A6A
:100B00002A53455155454E43452A2A2A46494E41C6
:100B10004C204C454E475448202020200100000026
:100B200000000000000000000000000000000000C5
:0A0B300000000000000000000000BB
:020000040001F9
:01FFF80020E8
:01FFF900F017
:01FFFA00C73F
:01FFFB00F015
:01FFFC00F80C
:01FFFD00FF04
:00000001FF
